:020000040000fa
:080000000002040000000000f2
:020000040000fa
:040008004a040000a6
:020000040000fa
:04000c008c04000060
:020000040000fa
:04001000cc0400001c
:020000040000fa
:040014006a0400007a
:020000040000fa
:04001800ac04000034
:020000040000fa
:04001c0036050000a5
:020000040000fa
:04002000ec040000ec
:020000040000fa
:04002400360500009d
:020000040000fa
:040028003605000099
:020000040000fa
:04002c003605000095
:020000040000fa
:040030003605000091
:020000040000fa
:04003400360500008d
:020000040000fa
:040038003605000089
:020000040000fa
:04003c003605000085
:020000040000fa
:040040003605000081
:020000040000fa
:04004400360500007d
:020000040000fa
:040048003605000079
:020000040000fa
:04004c003605000075
:020000040000fa
:040050003605000071
:020000040000fa
:04005400360500006d
:020000040000fa
:040058003605000069
:020000040000fa
:04005c003605000065
:020000040000fa
:040060003605000061
:020000040000fa
:04006400360500005d
:020000040000fa
:040068002c04000064
:020000040000fa
:04006c000e0400007e
:020000040000fa
:040070003605000051
:020000040000fa
:04007400360500004d
:020000040000fa
:040078003605000049
:020000040000fa
:04007c003605000045
:020000040000fa
:040080003605000041
:020000040000fa
:04008400360500003d
:020000040000fa
:040088003605000039
:020000040000fa
:04008c003605000035
:020000040000fa
:040090003605000031
:020000040000fa
:04009400360500002d
:020000040000fa
:040098003605000029
:020000040000fa
:04009c003605000025
:020000040000fa
:0400a0003605000021
:020000040000fa
:0400a400360500001d
:020000040000fa
:0400a8003605000019
:020000040000fa
:0400ac003605000015
:020000040000fa
:0400b0003605000011
:020000040000fa
:0400b400360500000d
:020000040000fa
:0400b8003605000009
:020000040000fa
:0400bc003605000005
:020000040000fa
:0400c0003605000001
:020000040000fa
:0400c40036050000fd
:020000040000fa
:0400c80036050000f9
:020000040000fa
:0400cc0036050000f5
:020000040000fa
:0400d00036050000f1
:020000040000fa
:0400d40036050000ed
:020000040000fa
:0400d80036050000e9
:020000040000fa
:0400dc0036050000e5
:020000040000fa
:0400e00036050000e1
:020000040000fa
:0400e40036050000dd
:020000040000fa
:0400e80036050000d9
:020000040000fa
:0400ec0036050000d5
:020000040000fa
:0400f00036050000d1
:020000040000fa
:0400f40036050000cd
:020000040000fa
:0400f80036050000c9
:020000040000fa
:0400fc0036050000c5
:020000040000fa
:0401000036050000c0
:020000040000fa
:0401040036050000bc
:020000040000fa
:0401080036050000b8
:020000040000fa
:04010c0036050000b4
:020000040000fa
:0401100036050000b0
:020000040000fa
:0401140036050000ac
:020000040000fa
:0401180036050000a8
:020000040000fa
:04011c0036050000a4
:020000040000fa
:0401200036050000a0
:020000040000fa
:04012400360500009c
:020000040000fa
:040128003605000098
:020000040000fa
:04012c003605000094
:020000040000fa
:040130003605000090
:020000040000fa
:04013400360500008c
:020000040000fa
:040138003605000088
:020000040000fa
:04013c003605000084
:020000040000fa
:040140003605000080
:020000040000fa
:04014400360500007c
:020000040000fa
:040148003605000078
:020000040000fa
:04014c003605000074
:020000040000fa
:040150003605000070
:020000040000fa
:04015400360500006c
:020000040000fa
:040158003605000068
:020000040000fa
:04015c003605000064
:020000040000fa
:040160003605000060
:020000040000fa
:04016400360500005c
:020000040000fa
:040168003605000058
:020000040000fa
:04016c003605000054
:020000040000fa
:040170003605000050
:020000040000fa
:04017400360500004c
:020000040000fa
:040178003605000048
:020000040000fa
:04017c003605000044
:020000040000fa
:040180003605000040
:020000040000fa
:04018400360500003c
:020000040000fa
:040188003605000038
:020000040000fa
:04018c003605000034
:020000040000fa
:040190003605000030
:020000040000fa
:04019400360500002c
:020000040000fa
:040198003605000028
:020000040000fa
:04019c003605000024
:020000040000fa
:0401a0003605000020
:020000040000fa
:0401a400360500001c
:020000040000fa
:0401a8003605000018
:020000040000fa
:0401ac003605000014
:020000040000fa
:0401b0003605000010
:020000040000fa
:0401b400360500000c
:020000040000fa
:0401b8003605000008
:020000040000fa
:0401bc003605000004
:020000040000fa
:0401c0003605000000
:020000040000fa
:0401c40036050000fc
:020000040000fa
:0401c80036050000f8
:020000040000fa
:0401cc0036050000f4
:020000040000fa
:0401d00036050000f0
:020000040000fa
:0401d40036050000ec
:020000040000fa
:0401d80036050000e8
:020000040000fa
:0401dc0036050000e4
:020000040000fa
:0401e00036050000e0
:020000040000fa
:0401e40036050000dc
:020000040000fa
:0401e80036050000d8
:020000040000fa
:0401ec0036050000d4
:020000040000fa
:0401f00036050000d0
:020000040000fa
:0401f40036050000cc
:020000040000fa
:0401f80036050000c8
:020000040000fa
:0401fc0036050000c4
:020000040000fa
:0402000036050000bf
:020000040000fa
:0402040036050000bb
:020000040000fa
:0402080036050000b7
:020000040000fa
:04020c0036050000b3
:020000040000fa
:0402100036050000af
:020000040000fa
:0402140036050000ab
:020000040000fa
:0402180036050000a7
:020000040000fa
:04021c0036050000a3
:020000040000fa
:04022000360500009f
:020000040000fa
:04022400360500009b
:020000040000fa
:040228003605000097
:020000040000fa
:04022c003605000093
:020000040000fa
:04023000360500008f
:020000040000fa
:04023400360500008b
:020000040000fa
:040238003605000087
:020000040000fa
:04023c003605000083
:020000040000fa
:04024000360500007f
:020000040000fa
:04024400360500007b
:020000040000fa
:040248003605000077
:020000040000fa
:04024c003605000073
:020000040000fa
:04025000360500006f
:020000040000fa
:04025400360500006b
:020000040000fa
:040258003605000067
:020000040000fa
:04025c003605000063
:020000040000fa
:04026000360500005f
:020000040000fa
:04026400360500005b
:020000040000fa
:040268003605000057
:020000040000fa
:04026c003605000053
:020000040000fa
:04027000360500004f
:020000040000fa
:04027400360500004b
:020000040000fa
:040278003605000047
:020000040000fa
:04027c003605000043
:020000040000fa
:04028000360500003f
:020000040000fa
:04028400360500003b
:020000040000fa
:040288003605000037
:020000040000fa
:04028c003605000033
:020000040000fa
:04029000360500002f
:020000040000fa
:04029400360500002b
:020000040000fa
:040298003605000027
:020000040000fa
:04029c003605000023
:020000040000fa
:0402a000360500001f
:020000040000fa
:0402a400360500001b
:020000040000fa
:0402a8003605000017
:020000040000fa
:0402ac003605000013
:020000040000fa
:0402b000360500000f
:020000040000fa
:0402b400360500000b
:020000040000fa
:0402b8003605000007
:020000040000fa
:0402bc003605000003
:020000040000fa
:0402c00036050000ff
:020000040000fa
:0402c40036050000fb
:020000040000fa
:0402c80036050000f7
:020000040000fa
:0402cc0036050000f3
:020000040000fa
:0402d00036050000ef
:020000040000fa
:0402d40036050000eb
:020000040000fa
:0402d80036050000e7
:020000040000fa
:0402dc0036050000e3
:020000040000fa
:0402e00036050000df
:020000040000fa
:0402e40036050000db
:020000040000fa
:0402e80036050000d7
:020000040000fa
:0402ec0036050000d3
:020000040000fa
:0402f00036050000cf
:020000040000fa
:0402f40036050000cb
:020000040000fa
:0402f80036050000c7
:020000040000fa
:0402fc0036050000c3
:020000040000fa
:0403000036050000be
:020000040000fa
:0403040036050000ba
:020000040000fa
:0403080036050000b6
:020000040000fa
:04030c0036050000b2
:020000040000fa
:0403100036050000ae
:020000040000fa
:0403140036050000aa
:020000040000fa
:0403180036050000a6
:020000040000fa
:04031c0036050000a2
:020000040000fa
:04032000360500009e
:020000040000fa
:10040000ef1a21000eff27000e01880000002000d7
:100410000000e000020032000001200020028800fd
:1004200014000700da0107000000e00003003a00b2
:1004300060cb2200010020000200370000002000f5
:1004400001002000810f70004220ae000f00070065
:10045000000020000000e0004220ae00000002008a
:1004600000000000b2310200000000000040da008d
:100470000000fe00c00820000000e0000200320082
:10048000002020009001880000000600a1028800e2
:10049000800478000000eb001f003700e284440075
:1004a00054a0b4009905ba00e284440054a0b400fa
:1004b0009906ba00e284440054a0b4000006eb00a0
:1004c000476fde00fd07b200ae018800636ce100fb
:1004d00003003a000ad801000000eb000e003700cc
:1004e000606ce10008003a00004deb000a05e800ee
:1004f000020039003420ec000af0a0008b05e9006e
:10050000f9ff3e00040037006168e100010032009d
:100510000086eb000b00070019c7ba001905ba00e6
:100520000e04e00003003a000a00e000dbff3a009e
:1005300000000600fe07b200ae0288008a047800c0
:10054000f5ff37000cd0a300e20f4d001c0039006e
:1005500089027800354dba000a05e800020039002a
:100560003420ec000af0a0008b05e9000f003200f7
:10057000254dba000a05e800020039003420ec00dd
:100580000af0a0008b05e900080032000c00e00032
:100590000600320015cdba000a05e8000200390055
:1005a0003420ec000af0a0008b05e9008984e80003
:1005b00054a0b4000b00e000e2ff3a000000060087
:1005c0009902ba00055d78008b05e900f7ff32005b
:1005d000c82ade00055d78008b05e900f3ff3200d4
:1005e0000c00e000f1ff320019ddba00eeff370029
:1005f0006100e10001003200100005005400f80025
:1006000050102000a002880000f927001000ba0056
:100610005400f90007e02b0007f0a7008703d10082
:100620000703780001c4fe000003eb000120200056
:1006300090018800a1272b00111303008703e90014
:10064000fdff3a0000f0a6000000050000f0a00049
:1006500080c4fe0086037800f3ff37000408200002
:10066000010037000002eb006100e10001003200f0
:10067000100005003200f8003400f8008102780014
:10068000930188003200be000100e0000c0032003f
:100690000470a70000f0a00032037800c733de002a
:1006a000848343004220af008703e800a70188004d
:1006b000f607b2007f30e100040032002000200085
:1006c0003400f9003200f900000006008100e90062
:1006d0000500e00003003a00018009003210030029
:1006e000e8ff37000180090032900300d561ae00b9
:1006f000e4ff370030002000f1ff370050052000f4
:10070000b00e8800a00a2000b00e8800d3e1a80037
:100710000000060050052000b00e8800a00a20004e
:10072000b00e8800d3e1a90000000600582804009c
:1007300000000000622804000000000050280400af
:10074000000000002828040000000000b626040075
:1007500000000000f0260400000000000c27040048
:10076000000000007227040000000000be27040003
:10077000000000002227040000000000fc27040005
:1007800000000000c826040000000000d22604007b
:1007900000000000dc26040000000000e626040043
:1007a0000000000032270400000000003c27040085
:1007b000000000004627040000000000a2260400fc
:1007c000000000005027040000000000c42a0400bc
:1007d00000000000f0310400000000003a2b04008b
:1007e00000000000a22b040000000000f02b040019
:1007f000000000003a2c0400000000009c070400e8
:1008000000000000c807040000000000ae13040050
:100810000000000000000400000000003600f800a6
:10082000809fbe00829fbe00849fbe00869fbe0048
:100830000000fa00b0808000000001000080fa0093
:100840004f03be004f02be004f01be004f00be006e
:100850003600f900004006003600f800809fbe0018
:10086000829fbe00849fbe00869fbe000000fa00eb
:10087000c0808000000001000080fa004f03be002d
:100880004f02be004f01be004f00be003600f9000f
:10089000004006003600f800809fbe00829fbe0028
:1008a000849fbe00869fbe000000fa00c028a900f9
:1008b0000000eb00031707000080fa004f03be00a2
:1008c0004f02be004f01be004f00be003600f900cf
:1008d000004006003600f800809fbe00829fbe00e8
:1008e000849fbe00869fbe000000fa00fa16070033
:1008f000c048a90010002000f21607000080fa008e
:100900004f03be004f02be004f01be004f00be00ad
:100910003600f900004006003600f800809fbe0057
:10092000829fbe00849fbe00869fbe000000fa002a
:10093000c068a90020002000e21607000080fa002d
:100940004f03be004f02be004f01be004f00be006d
:100950003600f900004006003600f800809fbe0017
:10096000829fbe00849fbe00869fbe000000fa00ea
:10097000c088a90030002000d21607000080fa00cd
:100980004f03be004f02be004f01be004f00be002d
:100990003600f900004006003600f800809fbe00d7
:1009a000829fbe00849fbe00869fbe000000fa00aa
:1009b000c608a90070002000c21607000080fa00d7
:1009c0004f03be004f02be004f01be004f00be00ed
:1009d0003600f900004006003600f800809fbe0097
:1009e000829fbe00849fbe00869fbe000000fa006a
:1009f0002146800000102000008060000000e00020
:100a000003003200c508a900c0002000ad16070091
:100a10002146800000022000008060000000e0000d
:100a200003003200c4a8a90090002000a51607000a
:100a300020468000700060000000e00003003200eb
:100a4000c488a900a00020009e1607002046800050
:100a5000610060000000e00003003200c408a9004b
:100a6000b000200097160700ffff37000040da00b3
:100a70000000fe000a00fa0011002000b1bf9f0034
:100a8000c0bf9f006a805700730807004fb89700e7
:100a90000080fa00000006000a00fa005100200061
:100aa000b1bf9f00c0bf9f006a8057006c0807005d
:100ab0005fb897000080fa0000000600889fbe0023
:100ac00080047800608d80000000e00004003a009f
:100ad0000e0007000084eb000000e0000800350075
:100ae000688d80000900e000050032000900440024
:100af000060007000000e00001003d000084eb005c
:100b0000080078004f04be00000006008000780056
:100b10000100e00003003a0000002000608d880022
:100b2000000005000080eb0002002000828f5000d2
:100b300002003e00618d88000000eb00000006000e
:100b40000800fa0010079800210798003207980063
:100b5000be009000010f7800070037002e009000c3
:100b600010407800ae0090008100e8002107980056
:100b7000c31407001e0fe9001e0078000000e0000b
:100b8000f6ff3a003e0090000080fa0000000600e8
:100b900000000500889fbe008a9fbe008c1f780061
:100ba000690007007000330003866c006450e100a8
:100bb0002e0032006420e100330032006150e10079
:100bc0002f0032006120e1003100320085855500a0
:100bd000eb07b000090020000804200005003700e2
:100be0000804440089844c000a00310006034300d5
:100bf00087834b000001530081815b00f8ff3300c5
:100c00000203be000800a0000804440089844c00d0
:100c1000f6ff3900c639dd008301730001003200a0
:100c2000130020008904d1000884d3000998a30090
:100c3000050032000800a7000300a0008904d100cd
:100c40000884d3008b05e8008904d1000884d30010
:100c50000001eb000281d2001500070001f0a100a5
:100c60000cf0a70001f0a000480037006420e1006c
:100c70004a0032000801be000200be00f7ff370044
:100c80006120e100450032006000b800f3ff37004a
:100c90000000200001f82700f0ff37004f89de0038
:100ca00082017800500037006011b8005e00370004
:100cb00081002000618055000b003d000b002000ea
:100cc00061fe2f000100e1001d00340082817100ef
:100cd000610164008904d1000884d3000000e800a9
:100ce000faff3a0071002000610064000300700008
:100cf000020060000900320061044400e0844c00fe
:100d00000988a500050032008b05e8006808e100ad
:100d100002003a008904d1000884d300f20f2000b9
:100d20000258e10005003d00c75ddd00f907b20093
:100d30008980750008007800000006000bf8270085
:100d40008b007800000005000004be00650007006d
:100d50000003be000405be000200be0061000700e3
:100d6000844f7500000006000200be006450e100e0
:100d7000050036006420e100020036000968a30087
:100d800001003a000800be000160a0004f06780094
:100d90004f05be004f04be0000000600f0ff2f000c
:100da000f1ff2700f9ff37006022b800060220009b
:100db0000000d0008180d2000482d2008582d2005f
:100dc0000000a0000202520083825a00030031009a
:100dd0000202420083824a000000a1000603e900eb
:100de000f3ff3a0000000600881f78000304780033
:100df0000300e00007003d0060001000e0801800e4
:100e000060011900e081190002003b0001f02d0093
:100e1000030037000400070008f0a70001f0a0005d
:100e20004f04780000000600889fbe008a9fbe0025
:100e300000827000040271000482710026003200fa
:100e40000004be000200be006011b8006b09200063
:100e5000950220000182cf000a0039000541b1004f
:100e60000082cf00070039000541b1000982cf00a0
:100e7000040039000541b1000882cf0001003900ab
:100e80000541b10005425200120032000a003b0049
:100e900082817100610164008100d1000080d30073
:100ea0008984d3000884d3008b05e8000442e8005d
:100eb000f7ff3a00070037000804440089844c001b
:100ec00000004800818048008b05e9000442e900e9
:100ed000f9ff3a0076ff07004f05be004f04be0041
:100ee00000000600c70ade00f107b200f50fb200ed
:100ef00008003200e1cf4200020032000170a00081
:100f000024000500810f7000010032000408050074
:100f100044000500810f700002003a001400050033
:100f20008502e9000000400081c04800fcff3b0052
:100f30000170a00024000500889fbe000004780016
:100f400001007800820478008801780009017800a7
:100f5000110020006f030700890f500001003200cc
:100f60000004eb00080078004f04be0000000600fb
:100f70000000fa00e88157004fb997006104210092
:100f8000c0792000cc0007000080fa0000000600b5
:100f9000889fbe00000478000203be008104780030
:100fa0000802780089017800120020000600be00c7
:100fb0002b050700890f5000010032000004eb00f0
:100fc000080078004f04be00000006006800fa0028
:100fd000889fbe008a9fbe008004780001047800cc
:100fe00082057800030578008400780000f92f005e
:100ff0000f00400018050700d98f9f00fb8f9f004e
:101000000000eb00a09f9f00e88f9f009a84fb00e8
:101010000904fb008904ea00cf4cde0050022000e6
:10102000800f54000d003200e18f54000b003a0095
:10103000090178008a0078007f889700df8997008f
:1010400003000100f08f9f000000e00095003200d7
:101050002f9897000000e800a09f9f000905450019
:1010600050022000800f5400040032000800e0000d
:10107000e6ff3a002f9897008b0037000000eb0046
:10108000809f9f00f0979f00e0979f00d0979f0060
:10109000c0979f00b0979f0007003700c11921003b
:1010a0000100500000004000011921008080400034
:1010b0004f98970011007000c09f9f000a047800ad
:1010c00008057800ba4478008900fb00c0192100a7
:1010d0008a0307000000e000f0ff3a00a1c2b3005d
:1010e00081cf54000e003a008f8897000180e900fc
:1010f000808f9f0010007800b09f9f000000e000ec
:1011000005003d000000ea00b09f9f004f98970047
:101110000020a000c09f9f000804e80010003700d6
:10112000b09f9f00880078000000eb0005003700aa
:10113000f3ff2700830f500002003200ea00b900dd
:101140000000410001047800880078003101fb00b4
:101150000203b100e90f5100f5ff3600b09f9f0078
:10116000e0c2b300984f1000020032000080eb0094
:1011700019003700a0c2b300d84f100007003a0092
:101180008f8897000180e900808f9f001000780011
:10119000909f9f000804e800100037000000eb005b
:1011a000909f9f008800780005003700f3ff27001c
:1011b000830f500002003200ea00b9000000410035
:1011c00001047800880078003101fb000203b100bf
:1011d000e90f5100f5ff3600909f9f00984478007a
:1011e0008900fb0080182100440307000000e00094
:1011f000020032000804e800010037008044eb00e0
:10120000a97f9f0080c6b30080cf540006003a003b
:1012100098cf140010003a0066405000a07f9f0055
:101220000804e8000c003700c0c6b30080cf5400ab
:1012300009003a0098cf140007003a0067404000c8
:10124000d84f100002003a006e40500001003700f5
:1012500010c7b300a07f9f001801fb00c3fb2f0045
:101260008f81410001f92f008f80400020f92f006d
:101270000f004000150007000000e00009003a00e0
:10128000c1fb2f008f80400020f92f000f0040008d
:10129000970307000000e000020035000805e800a1
:1012a0005aff37000080eb004f05be004f04be0020
:1012b0000080fa0000000600030278008201780036
:1012c00001017800817c200040ff3700889fbe002c
:1012d0008a1f7800000478008244780003057800b3
:1012e00070c4b30080cf54000a003c0000c0e90085
:1012f00080cf54000f003d0050c2b30080cf540097
:10130000380032007c40400080cf540038003a0062
:101310000800370010c6b30080cf5400050032002b
:1013200033003500b0c9b30000c04400e24f5000a4
:101330002f003e0008699000c0c4b300804f5100e8
:1013400006003a001101780068005100800878001a
:101350005001be004000be000500370011017800ba
:1013600064005100800878001000be003a070700b2
:10137000009cbe000294be00b800900028089000b7
:101380000100e00003003d0080004500d2c2b30030
:101390000a003700b81090000118a30003003200c3
:1013a00080004500b2c2b300040037000108a3006a
:1013b000050032008000450002c2b3008248780078
:1013c0000000e800200c9800280890000005450067
:1013d0007a0498008900fb000800780010000700dc
:1013e0000b00370028089000000545000500370075
:1013f00028089000000545000904e00001003a00bb
:1014000059c2b300094d78000000e800200c980094
:101410000000eb004f0578004f04be0000000600fe
:101420002f04b000889fbe008a9fbe008c9fbe0024
:101430008e1f78000007780081f79f003e04be00f1
:101440002e05be000e1090000000e00002003d00de
:1014500060002000001798008e00780020fb2f000d
:101460000f004000f8020700e20f50000a003a00a7
:1014700030002000400f9800b1c9b3000ff0970072
:1014800081404000a00a2100e1cf50000d003e0045
:10149000600a21000b0037000000e0000f0034005c
:1014a00030002000400f9800b1c9b3000ff1970041
:1014b00081404100200b2100e1cf500001003e009f
:1014c000e00a2100fe009000b0487800b068780083
:1014d0001040780090409800f30037000000e000d2
:1014e00005003a0022fb2f000f014100001978008f
:1014f0008001eb00e70037006022b8006033b800dd
:101500000800be000a01be001b0607000000e00044
:1015100001003d000bf0a200705927009f98970032
:101520000088b900026a2800130020007606070030
:10153000640650009c9f9f0013003b00630616004a
:10154000c0ff2f00000666008c01ea00939f9f00f9
:101550006d0b21000800be000a01be000700370025
:101560000c08a300030032003d02be002d03be00a4
:10157000070707000c86d100e88646000c00e00053
:10158000f7ff3c00180037000c00e00018003200a4
:10159000c0ff2f00000666009c9f9f006d0b21007e
:1015a0006000b8000200200003ff2300070037009e
:1015b0000c08a300030032003d02be002d03be0054
:1015c000f30607000c86d100e88646000c00e00018
:1015d000f7ff3c000002be000203be000800be0090
:1015e0000a01be00ee0507000004be000205be00b1
:1015f0008e10900060c6b3000ff29700804f52002b
:10160000040032006000200062c4b300824f520028
:1016100002003a009f9a97006a80420081004000d1
:10162000f1b79f0001037800f30f5300020034006c
:1016300037012000f7b79f0000c3b300c0779f00b9
:1016400056fb2f000f0343000e007800a0b79f0049
:10165000060778003d0037000800be000a01be0002
:101660009c0607000006be007fb19700680151008c
:10167000f2b79f004240a9000c003400c1060700e9
:101680000002be000203be000800be000a01be0048
:10169000350707006022b80046782d00771924002e
:1016a000bb0607000004be000205be00e8004700bc
:1016b0008e0020000802be000a03be00b4b79f00df
:1016c000c5b79f00d6b79f00e7b79f000c01be00cb
:1016d000010478000c003700a40020000500200061
:1016e000c0fd2f000f004000de0107006fa897002b
:1016f000ffa897000fb197009fb1970005c3b300f3
:10170000056441000001be00e00f5100e08f590068
:10171000030034000e07e900e10f4700eeff3a0036
:10172000880078003fb49700cfb497005fb597006a
:10173000efb597000200370000c3b3008060780067
:101740000e07e900fcff3b00688740007fb397006d
:101750000600e000070034006022b8006033b800e3
:101760000800be000a01be00880507000000e00076
:10177000b9ff3c000e0378002fb7970051fb2f00f4
:101780008f804000010353009f9b970067804300b8
:10179000909f9f00020037000603e9000000e90067
:1017a000010178008200780003c3b300b1cf1100bb
:1017b000f9ff3200909f9f008e11900061c6b30028
:1017c0000ff29700814f52000300320061c4b30052
:1017d000814f520002003a000000e8000a00370082
:1017e0001000200051c6b3008ff2970081cf520045
:1017f000050032000540780050c4b2000080fb00b4
:101800000000e9004f00de0083014000868f510098
:1018100001003400860178000300e0001d0035005f
:1018200000c3b300868f510006003d000302410053
:101830006940400041c3b30094cf100001003c0058
:10184000694050008300e900810041000100370039
:10185000840178000302e90001037800a1427800c6
:1018600080cf5200faff320091c3b300814f500085
:1018700001003a00054be8000400e00005003d00cf
:101880000201e9008301e8001f9b97000603e800be
:10189000969f9f008ff397008700fb001f9a970089
:1018a0000e007800060007004f0778004f06be00c4
:1018b0004f05be004f04be002f04b100000006001b
:1018c000f0874700889fbe008a9fbe008c9fbe00a5
:1018d0008e1f780000047800814478000205be0065
:1018e000040678000b00e00002003c001b00200012
:1018f0006a1a210060c6b30080cf54000e00320087
:1019000060c4b30080cf54000b00320070c6b30037
:1019100080cf54000300320070c4b30080cf540065
:1019200085003a00e40f460083003500081090005f
:10193000800f560080003d000c06e80060c6b30032
:1019400080cf54001000320060c4b30080cf540038
:101950000d003200381090000038a30004003a0057
:1019600008109000808f550001003d000b14980076
:10197000081090000c0050000014980002003b007a
:101980000000eb0000149800c80890007800900058
:101990000c00e00028003c000100400002c3b3003e
:1019a000024878008100e800410c9800081090007f
:1019b0000000e00003003c00381090000038a30055
:1019c000060032007800900001004000e2c2b3003f
:1019d000024878008100e800410c9800081090004f
:1019e0008c00ea00810f500001003d000006ea0073
:1019f0008c00ea00510c9800000646000c14980078
:101a00008b0f5600010034000b0678006c0c980018
:101a1000f800900048089000008040000c01780019
:101a20008a0078002e010700081090000c06500074
:101a30007c0c9800940037008c8f550019003d00f5
:101a4000010040000b0178008a00780024010700a3
:101a50004808900000804500400c98008b05560017
:101a60005b0c9800881090000100e00003003c002f
:101a7000b81090000138a30007003200f800900071
:101a800000804000e1c2b30001487800680890007f
:101a90000000e800600c980008109000700c98009e
:101aa00079003700010040000c0178008a007800be
:101ab0000b0107004808900000004600400c980009
:101ac0008c855500881090000100e00003003c0068
:101ad000b81090000138a30006003200f800900012
:101ae00080804000e2c2b300824878000000e80035
:101af000400c980008109000808f550001003400c1
:101b000080057800f80090004808900000804000b0
:101b10008c0045000b017800f10007004808900098
:101b20000b004000400c9800081090008b055000fe
:101b30005b0c98005400370048089000f8009000b3
:101b4000808040009a4878000000e800400c98002f
:101b5000881090000100e00003003c00b8109000e5
:101b60000138a30006003200f80090008080400099
:101b7000e2c2b300824878000000e800400c980000
:101b8000081090000000e000100034008b05e90010
:101b9000808f55000100340080057800f800900027
:101ba00048089000008040008a00e8000b0178009f
:101bb000cb000700480890000b004000400c980044
:101bc000081090008b0550005b0c9800f800900006
:101bd0004808900000804000095878000007e8009d
:101be0000c00e00004003500b1c2b30001487800e9
:101bf0008e04780004003700d1c2b3000148780099
:101c00008e0478000c06ea007d8557008006eb0004
:101c100009003700a20020008c0078007280570075
:101c2000310007007fb097008fb89700016d7800f2
:101c3000000678008d06e8000c00e000f5ff3c008f
:101c40000d00e00009003a008e04780000c3b300e4
:101c5000805c7800050037008d06e900fc805700a5
:101c60000d80400001c3b30090dc40000d00e00097
:101c7000f9ff3c00f8009000480890000080400008
:101c800080845400690c9800381090007400600043
:101c9000f00f50000e003a00c8089000280890008d
:101ca00000804000d808900001004000e808900043
:101cb00001004000f808900001004000a8109000ca
:101cc000810f500002003d0000805000300c980051
:101cd0004f0778004f06be004f05be004f04be0000
:101ce0000f01b100000006008002780001037800b7
:101cf000050009000203d80080017800830a7800fb
:101d00008299b90082005300910298000500780082
:101d100000000600889fbe008a9fbe008c9fbe0008
:101d20008e1f780000067800010478000200780019
:101d3000830478008881b900020778000e00e00073
:101d4000420032000800e000410032008e057800b9
:101d5000c900900069009000808f50000400390095
:101d600009007800710007000000e000290035003c
:101d700000402000190060000a0032000b017800ca
:101d8000a10020000c0078004b00070080067800be
:101d90000d00e00006003200610516000a854600cd
:101da000040037000b0578008006eb0001003700c7
:101db0000b05780049009000e900900080805000f9
:101dc0008a8f500002003100010578008006eb0088
:101dd0000a0178008c007800410007008a855500d0
:101de000490090000a004000c00498000d00e00087
:101df0000400320009007800690207000000e000da
:101e000004003a000b00e000020032000a0646001f
:101e1000cfff370000802000190060000200320070
:101e2000090078005e02070000c020001900600071
:101e30000200320049009000e00498008b05570032
:101e4000050009008885d800010037000000eb007c
:101e50004f0778004f06be004f05be004f04be007e
:101e600000000600881f78008a9fbe008c9fbe007d
:101e7000000478000205be000406be000401be0096
:101e80000a00be0020040700008cbe000c01be004a
:101e9000370507000005550081855d002a0498007c
:101ea0003b049800080078004f06be004f05be00b6
:101eb0004f0478000000060003003700b0cf100088
:101ec000050032000201e900800178000200e00014
:101ed000faff3a0000000500030078000000060049
:101ee0008001780002003700b15978000201e90052
:101ef0000200e000fcff3a0000000600020037008c
:101f00000304e000060032000001780002007800bf
:101f1000b041780081cf5100f9ff3a00010037004d
:101f20000001eb000200780000000600889fbe0060
:101f30008a1f780000047800c800900068019000b3
:101f40000000eb00828f50003c0039001800780040
:101f50002200290002016000e20f51000700320058
:101f6000012020000000e0000100350001202400d5
:101f7000008c70000080eb0030003700020026006b
:101f800002006000820f500009003a003800900003
:101f9000808f50000600390008007800000207001a
:101fa000800078000080eb000100e00023003a0090
:101fb0001805780000c020000000650018003a00f5
:101fc000a80490006002200008004000808f5400a8
:101fd00013003a0000202000eb02070020049800c4
:101fe0000000e00005003a00290498004904980028
:101ff0008904e80039049800080037000a60a0004e
:102000000a0c7800400498000120200080804000e5
:1020100031049800400c9800500c98007e01070095
:102020002800900050049800380090006004980048
:1020300000002600180c70000000eb004f0578002f
:102040004f04be0000000600889fbe000004780018
:10205000e6844000e4800a0019000000f27f2000be
:10206000820f500010003a00000ceb009904780039
:102070006f816400200020001b003a0021019000c5
:102080000200e00018003a00110190000200e00098
:1020900015003a00100020001100e000120032008c
:1020a00020002000100037000000e00004003a008b
:1020b00001007800030207000000e00008003c0077
:1020c000f20028001901610001fe2300810c71005b
:1020d00021c02f00010c40000080eb0002003700ff
:1020e000000ceb000000eb004f04be0000000600f7
:1020f0000400fa00889fbe008a9fbe008c1f7800f3
:102100000004780001067800a814900028089000c8
:10211000808454003808900080845400480890005f
:10212000808454005808900080845400680890000f
:1021300080845400780890008084540000022200bb
:1021400090bf9f0000032300a0bf9f0038109000a5
:102150000028a30015003a000900e0001300340035
:10216000090578008a057800e20f55000100360065
:102170002b002000c80190000b017800ee80570072
:102180006800900003000100600498000000e00077
:10219000aa003200181090000b00400010149800a4
:1021a0000b0555004240a900eeff3c0028099000b5
:1021b0000200e0000c003400c80190008c007800a0
:1021c0006800900003000100600498008080eb002c
:1021d0000000e0009a00320098109000280890005b
:1021e0000080400010149800380d90000a00e000b4
:1021f000110034008a057800e20f55000100360016
:102200002b002000c80190000b017800ec805700e3
:102210006800900003000100600498000000e000e6
:1022200086003200181090000b0040001014980037
:102230000b055500edff370008699000c8089000b5
:1022400050c6b300804f510008003a000100e00082
:102250001500340058029000080990009809900079
:102260006800900004000100070037000100e00052
:102270000d003400c801900001017800f8009000c2
:102280006800900003000100600498008080eb006b
:102290000000e0006a0032009810900048089000aa
:1022a0000080400010149800580d90000a00e000d3
:1022b000110034008a057800e20f55000100360055
:1022c0002b002000c80190000b017800ec80570023
:1022d0006800900003000100600498000000e00026
:1022e00056003200181090000b00400010149800a7
:1022f0000b055500edff3700086990006808900055
:1023000051c6b300814f51000d003a000000e000bb
:102310001c00340078019000c808900001014100c1
:102320006111b800828fd2008381d20058029000e0
:102330008000780068009000040001000900370068
:102340000000e0000f00340078019000c808900001
:1023500081004100c80190000001780068009000f1
:1023600003000100600498008080eb000000e000a2
:102370003300320098109000680890000080400000
:1023800010149800780d90000a00e000110034004d
:102390008a057800e20f5500010036002b0020006e
:1023a000c80190000b017800ec8057006800900095
:1023b00003000100600498000000e0001f003200ec
:1023c000181090000b004000101498000b055500e9
:1023d000edff3700381090008000eb000028a300cc
:1023e000170032000900e0001500340009057800ec
:1023f000e28f5400010036002a002000c80190003e
:102400000a017800ee805700680090000300010088
:10241000600498000000e0000800320018109000ee
:102420000a004000101498008a8454004240a90019
:10243000eeff3c008000eb00010037008080eb00e5
:10244000010078004f0678004f05be004f04be0023
:102450000080fa0000000600010878000000060075
:10246000e6874700889fbe008a9fbe008c9fbe0003
:102470008e1f780082bf9f00040478008299b90003
:10248000f2b79f000200e000590032000fb9970038
:102490000200e000570032000006be007fb7970040
:1024a000c800900068009000808f50000400390040
:1024b000080078009dfe07000000e0003b003500aa
:1024c00000402000180060000a0032008e017800f1
:1024d000a20020000c00be000c0207000005be0098
:1024e00000807500070032008c0455008904e80064
:1024f000050037008e0478000a0020000b00200041
:10250000010037008e0478004801900068009000b8
:1025100002005000890f5000030031008004780051
:102520000a0020000b0020006111b800828fd20049
:102530008381d200090278000c00be00ca010700a6
:102540000907570048009000090040004004980027
:102550000a8575000400320008007800900007002a
:102560000000e00011003a000e00e0000f00320011
:102570006148b800808fd2008180d20000007800ce
:1025800000f0a1000c01d0008001d0000306410042
:102590004220a80081864e004200a9004220ae00e1
:1025a0004200a8000c86d300bdff37000080200049
:1025b0001800600002003200080078007800070070
:1025c00000c02000180060000200320048009000a7
:1025d000600498007fb197000e0751000fb9970073
:1025e000050009000287d80080017800010037004b
:1025f0008001eb00030078004f0778004f06be0013
:102600004f05be004f04be006f00b1000000060081
:10261000e03a21009e003700881f7800881a2100c8
:102620001804e00003003a00f9ff070020c0b300df
:10263000004c78004f04780000000600889fbe0020
:102640000004780008007800550007008004780036
:1026500000042000180060000200320028009000f2
:10266000e40007000000eb002004980038409000d0
:102670000004e000050035000000fb00fdf8070045
:102680000000e000010032008084eb001810900090
:102690000000e00008003200fff807000000e00042
:1026a000010032008084eb0018109000d100070078
:1026b0000000eb00101498000008200018006000d3
:1026c000150032000001eb006000b8000202d000eb
:1026d0006309210003024200940f140005003a0030
:1026e0000000400081804800008041000008eb00ad
:1026f0000600370061004000e08048000201e80069
:10270000e80f5000e08f5800f0ff3a000800780012
:10271000b80007000e003700000c780000c0eb0086
:102720003044980060022000080040002004980017
:102730004004980050049800400c980060049800f1
:10274000500c98007004980076004400000c98002b
:10275000090078004f04be0000000600881f7800c2
:102760000004eb006140b800e2ff2f00f3ff2f00f0
:10277000ff020700420a210080004100110078009a
:102780000000e00001003200acff07000804e80090
:10279000e80f5400f3ff3a004f04780000000600f1
:1027a000889fbe00000478000800e00010003a0096
:1027b0008004eb00090478008800d0006009210043
:1027c00000804000100078000000e00004003200ab
:1027d000f3ff07000000e00001003d008084eb00f3
:1027e0000804e800e80f5400f3ff3a002500370022
:1027f00000002200180060008004eb00210032007d
:10280000a80490000f0037000901510038409000e3
:102810000000fb0089007800c9f807000000e00014
:1028200007003c00280090004004980060049800d5
:10283000500c98001890a0008084eb001100370025
:102840008084440048019000828f5400eeff3900dc
:1028500028009000400498009800780002c02000f2
:102860000281600001003a003800900001e8a300f6
:10287000020032006004980001003700500c9800fc
:102880008004eb00090078004f04be000000060041
:10289000010020000100e00009003200010080007a
:1028a0000100e000060032008100e900010088001c
:1028b0008100d00002008000828040008008780003
:1028c00000000600e6004000110178000500280025
:1028d000850261006f016100820878000200320009
:1028e0001200200011003700a0019000120020000b
:1028f0000300e0000d003a00900190000300e000aa
:102900000a003a001000e00008003a0036003700e4
:10291000640340009608780080017800530b78002b
:1029200090097800040878007001510011027800c5
:102930000400e000f6ff320013003700640240009c
:10294000140378004f33de00838141008308730055
:1029500080017800d3037800cf3bde0014037800b9
:1029600006034300068a7300130278000402420043
:10297000100378004f33de00860972009001780062
:10298000038841000201e90091017800ef8f5100b6
:10299000eaff36001000370080017800530378000a
:1029a0004f33dd001002d1000408730064024000c0
:1029b00094037800cf3bdd001303d10086897300b8
:1029c000110378004f33dd009401d100030a730036
:1029d0009108d1000201e80091017800ff8f5100b9
:1029e000edff3e00ef8861009188720002007800e0
:1029f000000006000000e0002f003200c001780057
:102a0000e38f51002c0036000308a3002a003a008f
:102a1000218d80000100e00002003200810f500093
:102a20000400310011009800208d88001600370046
:102a300082007800110190000200e00002003200e4
:102a4000800f5100faff39001102780084824000a3
:102a5000850f500018003900808f520003003a00a3
:102a60008308420001007800070037000200e00000
:102a70000300320083014000830f51000e00390033
:102a80001200980090009800900090000100e00073
:102a90000900320010014000828f500006003a0009
:102aa000221a21000009eb001001780011084100f2
:102ab000910090001100980000000600889fbe0061
:102ac00000047800118d80000100e0000200320057
:102ad000010078000d003700218d8000401a210090
:102ae00004003700910f5400250036000180e800f3
:102af000910090000100e000faff3a00100037005a
:102b0000920f54001e0036000280e8001001780089
:102b10000200e000faff3a0011017800218d8000e8
:102b2000401a210004003700910f540014003600b1
:102b30000180e80091009000828f5000faff3a0077
:102b4000598d8000888f540001003100880478007e
:102b500009007800360007000000e00004003a0099
:102b6000888f5400050032008904d100f5ff37003a
:102b7000091878009fff0700d2ff37000000eb0024
:102b80004f04be0000000600881f78006304400068
:102b90000800a1008000eb00800f540021003600e7
:102ba000e30f540001003e004800200008007800b8
:102bb000c2ff07008000eb000000e00019003200b7
:102bc000900078009101780064815100880f5100d5
:102bd000030031001101900002087800070037005f
:102be00008814000020878009101900013019800cc
:102bf000100178001109140088087800100178008d
:102c00000000eb000200e00004003200920190009e
:102c10000300e000010032000280e800108d88000f
:102c20008180e800010078004f0478000000060071
:102c3000800078000000eb000100e0000500340097
:102c4000010078009df70700e10f400001003a0005
:102c50000000eb000000060000c0da0000000600e3
:102c600000c0da00000006003400f8003200f8006e
:102c70000203be00820270008502720002f0a6000c
:102c80008301e800a301880000f0a6008100e800ad
:102c9000910188001500b2000c0032001049780044
:102ca0000402e90015003200610141000200390010
:102cb0003420ec000200280061004000f7ff3900da
:102cc0003220ec0000002800f4ff370010097800e3
:102cd0000482e9000900320062014100020039006b
:102ce0003420ec000200280062004000f7ff3900a9
:102cf0003220ec0000002800f4ff37003200f90019
:102d00003400f9000601be00000006000300e000e8
:102d1000070032009501800001d0fe0010427800cb
:102d200005d0fe000402fb00820f520011003200a9
:102d30008301e9009501800001d0fe001042780077
:102d400005d0fe000404e000080032000002780014
:102d50001000b00000026a004260af0000f0a00066
:102d60000482d2000180b000e8ff3700000020009c
:102d700001002000000006008f1fd10000020700a4
:102d80008f87e9000000e00000000600809feb0054
:102d9000fb0107008f87e9000000e000000006004b
:102da0002800fa00889fbe008a9fbe008c9fbe004c
:102db00003866b008f0007006400e10044003200ce
:102dc0006408e1004a0032006100e1004600320080
:102dd0006108e10049003200ec0647006000b800dd
:102de0003d02be003d03be00f48657006011b800ee
:102df0003d04be003d05be007d0320000b003700f2
:102e00000000a0008d06e900130032000402420019
:102e100085824a0006034b0087834b000000400078
:102e20008180480002014900838149000802520064
:102e300089825a000a035b008b835b00f0ff3b0032
:102e40000802420089824a000a034b008b834b0030
:102e50008d06e900edff3a008482720086827200de
:102e6000f707b200878272000100320015002000cf
:102e70001e0490003e0b900006035400e63fb00095
:102e80000368a300070032000000a7000500a000af
:102e90008301d1000281d3008180d3000080d30060
:102ea0000603e8008301d1000281d3008180d300b2
:102eb0000080d3000002eb000482d2002100070052
:102ec00003f0a1000cf0a70003f0a0005d003700a4
:102ed000640247006408e100570032003400be007d
:102ee0003401be00f6ff37006108e10052003200f5
:102ef0006011b8006000b800f1ff370003ff270041
:102f000002002000fbff3700839f68000100e00003
:102f100002003d0060001000e08018000300e000a7
:102f200002003d0060011100e08119009ef70700da
:102f30004f00e00002003b0060001000e08018003d
:102f4000000006001800200057002000080453006d
:102f50000d003d000600200097fc2f000740e10017
:102f60001e00340084827200610260008301d1007f
:102f70000281d3008180d3000080d3000804e800e0
:102f8000f8ff3a0047002000610460000504740067
:102f9000040464000d00320061004000e08048003d
:102fa00060014900e081490003b8a5000700320034
:102fb0000603e8006538e10004003a008301d1000f
:102fc0000281d3008180d3000080d300f87f2000ed
:102fd0000830e10003003500080378006000b80005
:102fe0006011b8004433dd00f300b20083017300c8
:102ff00000000600680447000294be000094be0072
:10300000fc0447008694be008494be00090078004a
:10301000a401070008007800a201070099007800c9
:10302000814f70000b003b000800be007d010700cf
:103030004f00b10003003700f3ff2700f2ff2f001d
:103040006110b9004f06be004f05be004f04be0020
:103050000080fa000000060081037800a1f7070055
:103060000001be006000b8000478a30013003a001d
:103070006220e10015003e000d0039008301d100ff
:103080000281d3008180d3008301d1000281d3006b
:103090008180d3008301d1000281d3008180d300dd
:1030a0000538b000c42add00f300b200838172004d
:1030b00007f0a70003f0a00000000600f3ff2700c0
:1030c000f2ff2f006110b900fbff370003ff27005c
:1030d000f7ff37001400fa00889fbe008a9fbe00e9
:1030e0008c9fbe000004be000205be0068004700c1
:1030f0000a90be000890be006a0107000070a70099
:103100000bf0a100304320009e029000808252000c
:10311000b0fe2f000028e10011003d00b0fc2f00a0
:103120000028e100150034001e0990008e08900070
:103130007e0090000501b0000201d1008180d30023
:103140000080d3008502e800fbff3a000b00e0009e
:10315000bcff3b0060001000e0801800b9ff3700a2
:10316000f0ff2f00f1ff27000b00e000b5ff3b0050
:103170000100280000002000b2ff37006000b80006
:10318000b0ff37004f89de00820178006c01370004
:103190002800fa00889fbe008a9fbe008c9fbe0058
:1031a00003866b0093ff07000028a30064003a0029
:1031b0000128a30067003a000008a30062003a005b
:1031c0000108a30065003a001e009000be089000b0
:1031d00081064000ed3fb100f4805700ee01900001
:1031e000111ab8008e099000311bb8009e0990009a
:1031f000311cb800511db800f48557004600070087
:10320000fe0190003a0007008b85e8003e000700b1
:103210008e09900040000700ee0190003400070086
:103220008b85e800380007008e09900040000700f9
:103230009e0990001b18b800890440000a854800c8
:10324000fe019000340007008b85e800380007007d
:10325000ee019000300007008e0990001b18b800a6
:10326000890440000a8548000a98a30008003a0033
:103270000402420085824a0006034b0087834b000c
:1032800008044c0089844c000a054d008d06e900b5
:1032900084827200850273004c3add008502720060
:1032a0000100320015002000443ade001400b20094
:1032b0004538de00cb45dd000b007000c540de0068
:1032c000cb4ddd008b8070004549de00cb55dd0025
:1032d0000b017100c551de000d03780019ff0700d6
:1032e00003f0a1000cf0a70003f0a00055ff370089
:1032f0001b18b8008502400006834800e0834b009d
:1033000060044c00070037001b18b800060340009b
:1033100087834800faff37001b18b8008703400076
:1033200008844800e0844c0060054d000000060061
:103330001b18b8000804400089844800faff3700d1
:103340000108a3003cff3a005800be005801be002f
:10335000e3ff37000008a30037ff3a0009047800b4
:10336000f9ff37000000000007f0a2000600370058
:10337000020ab900001bb9000200b8008100420037
:1033800081004300000006002800fa00889fbe006c
:103390008a9fbe008c9fbe00070678008786690062
:1033a0000c003b00030478008704780008f0a100bb
:1033b00009f0a100840f5000858f5800860f590036
:1033c000890f5c00030033000cf0a20001003a00fa
:1033d0000cf0a10007ff07006400e1005f0032006d
:1033e000780147006408e100610032006c01470089
:1033f000748557003200be001201be003a04be00c0
:103400001a05be001e039000be0a900085035300fb
:1034100006003d000004fd008104fd000205fd00e2
:103420008305fd008703ea00050378000df8a3007b
:103430000400320060041400e0841c0060051d00dc
:10344000e0851d006022b8007d0320000d38e100fa
:103450008006eb000b0039004433dd00f300b200be
:103460008301730039003700848272000d027800f6
:10347000e10664008b85d1000a85d3008984d300de
:103480000884d3008703e900f7ff3b0008004000f1
:10349000898048000a0149008b81490004003b00f3
:1034a00060001000e080180060011900e081190040
:1034b0000358a300090032008d82720084827200da
:1034c000610260008301d1000281d3008180d300ba
:1034d0000080d3000603e8001b0037000348a30068
:1034e00017003a000600e000170034000603e90068
:1034f0000d00a3000000480081804800020149003f
:10350000838149000348a3000f003a000600e00051
:10351000090034000603e9000000400081804800f3
:10352000020149008381490001003a000003eb00d9
:103530000348a300f5ff32006022b8000200370004
:1035400084827200618266007efe070003f0a100a3
:103550000cf0a70003f0a000bafe3700640147009a
:103560006408e10002003a000df8a300b2fe3a0040
:103570003200be001201be00b2fe370000000000a3
:10358000889fbe008a9fbe008c9fbe000404be00c0
:103590000605be00809fbe00829fbe002f00070070
:1035a000040678000800be000a01be002b000700d8
:1035b000840678004f03be004f02be008d4f760098
:1035c0007fb0970013003300f0ff2f008b8f6b004c
:1035d00006003b000d0666000c00a7000a0037003d
:1035e00007f0a600100020000a003700880f5200e4
:1035f000898f5a008a0f5b008b8f5b0003003900b4
:103600001000200001003e000000200007f0a7008d
:103610000000ea004f06be004f05be004f04be008a
:1036200000000600e48240001078a300070032008a
:10363000640240001178a3003400be001401be00f3
:10364000040032000330a700000006003500be0071
:103650001501be000330a0000000060005ff270092
:1036600005826100070032000428e10001003200f9
:10367000240005000600070001003a004400050090
:103680000408050002000700f9ff3a0014000500d5
:103690006f826100810270008502710085027200f4
:1036a00000000600800078005002be005003be00fb
:1036b0004439de00f700b200f37f2000030161000f
:1036c000090032000218e10016003a00850172007c
:1036d00083017300838173000008200015003a0005
:1036e0004000200013003700850172008301730041
:1036f0008381730005003a0004a8be0006a8be003e
:10370000100020000b0037000201e9000402420013
:1037100085824a0006034b0087834b000748a300bd
:10372000f9ff32000740a00004a8be0006a8be00b2
:103730002000200080009800920098000000060001
:10374000881f7800030478000300e00007003d00b4
:1037500060001000e080180060011900e08119008d
:1037600002003b0001f02d000300370004000700b9
:1037700008f0a70003f0a0004f0478000000060046
:10378000889fbe00008270000402710004827100f4
:103790002400320036432000c50020008383cf0080
:1037a0000a0039000541b1008283cf0007003900cb
:1037b0000541b1008183cf00040039000541b1000b
:1037c0008083cf00010039000541b10085c353005b
:1037d0006022b800120032000a003b0084827200ae
:1037e000610260008301d1000281d3008180d30097
:1037f0000080d3000603e8008743e800f7ff3a00a3
:1038000007003700000040008180480002014900a5
:10381000838149000603e9008743e900f9ff3a0084
:0c382000c8fd07004f04be0000000600b9
:020000040000fa
:10382c00546500006d70000065720000617400004a
:10383c0075720000652000003d200000253300005b
:10384c002e320000662000004320000009500000ca
:10385c007265000073730000757200006520000033
:10386c003d200000253300002e32000066200000b1
:10387c006b5000006120000009480000756d0000cd
:10388c006964000069740000792000003d2000008c
:10389c00253300002e320000662000002525000094
:1038ac0052480000200a00000d0000005465000082
:1038bc006d7000006572000061740000757200008c
:1038cc00652000003d200000253300002e32000052
:1038dc0066200000432000000950000072650000c3
:1038ec007373000075720000652000003d2000001d
:1038fc00253300002e320000662000006b500000c3
:10390c006120000009480000756d0000696400002a
:10391c0069740000792000003d2000002533000070
:10392c002e320000662000002525000052480000c1
:08393c00200a00000d0000004c
:020000040000fa
:103944000000fa0000cdb3001a0407000080fa005a
:10395400000006000000fa0061cbb30000ceb30003
:10396400000407000080fa00000006000000fa00ce
:103974000210a9000230a90002d0bf0080407800e4
:1039840040cfb300f70307000080fa0000000600f0
:103994001800fa0082c1b3008e00780080c8b3001a
:1039a4000b0407001e4090000080fb00c800dd00ef
:1039b4001e4078000080fb000080400020898800c1
:1039c4003e4090000080fb00c800dd002e409000c7
:1039d4000080fb0000804000308988005e40900039
:1039e4000080fb00c800dd004e4090000080fb001a
:1039f40000804000408988007e4090000080fb00e9
:103a0400c800dd006e4090000080fb000080400094
:103a1400508988001e4890000080fb00c800dd002b
:103a24000e4890000080fb00008040006089880000
:103a34003e4890000080fb00c800dd002e48900046
:103a44000080fb0000804000708988005e48900080
:103a54000080fb00c800dd004e4890000080fb00a1
:103a640000804000808988007e4890000080fb0030
:103a7400c800dd006e4890000080fb00008040001c
:103a8400908988001e5090000080fb00c800dd0073
:103a94000e5090000080fb0000804000a089880048
:103aa4003e5090000080fb00c800dd002e509000c6
:103ab4000080fb0000804000b08988005e509000c8
:103ac4000080fb00c800dd004e5090000080fb0029
:103ad40000804000c08988007e5090000080fb0078
:103ae400c800dd006e5090000080fb0000804000a4
:103af400d089880010cab300ae030700c1132100a7
:103b04008048780072c0b3008e00780010ceb300f5
:103b1400af0307001e4090000080fb00c800dd00da
:103b24001e4078000080fb0000804000f08988007f
:103b3400ae40900000142100014878003e409000ff
:103b44000080fb00c400dd004e4090000080fb00bc
:103b54006f00600001007000108a88005e409000d1
:103b64000080fb00c400dd004e4090000080fb009c
:103b74004400de00004078000080fb00010070007b
:103b8400208a88006e4090008040780060142100f4
:103b9400014878000080fa00000006000200fa00e4
:103ba400004f78009e40780067c06000e7406000e6
:103bb400400020000008dd000200210012417800ce
:103bc400f1c8b3008140610000c0700000f0b7008c
:103bd4000080fa00000006000200fa00004f78009e
:103be4009e40780067c0600067406000004040006d
:103bf400020021001241780011cfb300814061001e
:103c040000c0700000f0b7000080fa000000060059
:103c14000200fa00004f78001e417800e74061007e
:103c2400500020000008dd002100210091407800b0
:103c3400ffc0600000c0700002f0b7000080fa000e
:103c4400000006000200fa00004f78009e40780051
:103c540067c06000e7406000200020000008dd002d
:103c6400220021001241780031ceb300814061006e
:103c740000c0700002f0b7000080fa0000000600e7
:103c84000200fa00004f78001e4178001100210064
:103c9400824878000080fa00000006000200fa0062
:103ca400004f78009e40780063c06000634060006d
:103cb4002200210012417800c1cfb300814061008d
:103cc40000c0700002f0b7000080fa000000060097
:103cd4000000fa0000d0bf008040780050cfb3004d
:103ce4002003070001d0bf008040780020cfb3003c
:103cf4001c03070002d0bf008040780040cfb3000f
:103d0400180307000080fa00000006000000fa0013
:103d14000210a8000230a90002d0bf008040780041
:103d240040cfb3000f0307000080fa000000060034
:103d34000000fa006d00070003f0b70003d0bf00d5
:103d440033800a00000000000080fa000000060032
:103d54000800fa0082c0b3008e00780070cfb30070
:103d64001b0307006e4090000080fb008000eb0006
:103d74004809dd00c801de00830171004801dd004f
:103d84007e4090000080fb008000eb00000071008a
:103d94008180710040808800518088003e409000fe
:103da4000080fb008000eb004c09dd00c401de0054
:103db400830171004c01dd004e4090000080fb0047
:103dc4008000eb00440add00cc02de0085027200b4
:103dd4004402dd005e4090000080fb004400de00f1
:103de400004078000080fb008000eb0000007200bf
:103df4008180720000007100818071002080880041
:103e0400318088001e4078000080fb008000eb00b9
:103e14004c09dd00c401de00830171004c01dd00aa
:103e24001e4090000080fb008000eb00440add008f
:103e3400cc02de00850272004402dd002e409000b8
:103e44000080fb004400de00004078000080fb009e
:103e54008000eb000000720081807200000071009d
:103e64008180710060808800718088000080fa0081
:103e7400000006000400fa002300070086f3070090
:103e840002002000832c240041f30700008fbe00b1
:103e94001e00be000080fa00000006000400fa00c4
:103ea4008d0007007ff3070002002000a3472400d1
:103eb40037f30700008fbe001e00be000080fa002a
:103ec400000006000400fa00cc01070075f30700a7
:103ed40002002000034824002df30700008fbe00d9
:103ee4001e00be000080fa00000006000000fa0078
:103ef40030cfb300af02070003f0b70003d0bf0018
:103f04000080fa00000006001400fa00889fbe003a
:103f14008a9fbe008c9fbe0020808000318080007c
:103f24004d0add004301de0002017200c389de0098
:103f3400208980008000eb00000040008180480060
:103f4400000151008181590030898000cf80de005a
:103f5400809bb90086027800828ab900848242007c
:103f64000010b8008182420085007800c509dd0098
:103f74004b01de0002817100020f98004b8ade00c3
:103f8400140f98000e0990009e099000028fbe0045
:103f940020808000318080004c0add00c401de00f6
:103fa4008301720063079800c48ade0075079800d5
:103fb400208980008000eb006e029000fe029000d9
:103fc4000001520081815a002080800031808000ed
:103fd400cc0add004406de000c867200c48ede00ce
:103fe400208980008000eb000000560081805e0084
:103ff400809ab900828bb9008602780005024200db
:104004000010b80001024200840078004409dd0079
:104014004c03de0006037100cc8bde004089800077
:10402400cf80de0080b9b900868ab90084017800a7
:10403400030141000030b800010141008200780012
:10404400c20add004e05de000a857200ce8dde0058
:104054002a0798003b0798002e009000be009000ad
:104064003e014000ae8148000200be00808088000e
:10407400918088008080800091808000e509b900eb
:10408400e002b900840178000301410053002000dc
:104094000300b80001014100820078000008b0006c
:1040a4000180b000c80add004804de000884720004
:1040b400c88cde0048079800590798004e0090000d
:1040c400de0090004f06be004f05be004f04be0048
:1040d4000080fa00000006003000fa00889fbe004d
:1040e4008a9fbe008c9fbe008080800091808000eb
:1040f4008181d1000081d30000602000f1ff2f00f6
:10410400020040008380480020079800310798008f
:104114002e009000be0090004e09dd004203de0038
:1041240006037100c28bde002e009000be009000da
:10413400ce09dd004202de0004827100c28ade0084
:1041440084b9b90086a8b900000141000430b80060
:104154000101410082007800450add004b04de00c5
:1041640008047200cb8cde00a0898000cf80de00c2
:1041740080cbb900860178008889b900828141002a
:104184000040b80081814100830078004007980016
:1041940051079800400798005107980090898000c3
:1041a4006101b9002e0090008382b9003e009000a6
:1041b4008280b900000242002e0090000200b80084
:1041c400010242008400780000014000818148001f
:1041d4004e009000de009000000041008180490004
:1041e40040079800510798004e009000de009000b0
:1041f4004e09dd004204de000804710068079800df
:10420400c289de007307980080898000cf80de00b9
:10421400c000dd00000020006e029000fe0290004d
:10422400040040008580480040079800510798002a
:10423400708980006102b9002e009000be009000d9
:104244004e0bdd004206de000c067300c28ede005b
:104254002e009000be0090004e0cdd004205de00f2
:104264000a057400c28dde008ae9b9008cd8b90051
:10427400000141000a60b800010141008200780099
:10428400c309dd004d01de0002817100020f9800b8
:104294004d8bde00160f98000e0c900088a9b90013
:1042a4009e0890008488b900000141008e099000a6
:1042b4000320b8000101410082007800cd0add002e
:1042c4004302de0004827200240f9800438bde0058
:1042d400360f9800608980006101b9002e009000bb
:1042e4008382b9003e0090008280b900000242003f
:1042f4002e0090000200b800010242008400780001
:104304008180d1000080d3002e099000be09900066
:104314000200400083804800c289de000317980031
:104324004f8ade00141798000e1190009e11900021
:1043340022079800330798002e019000be019000d8
:104344000000280001002000020140008381480091
:10435400508980008000eb00809ab900828bb900fc
:1043640086027800050242000010b80001024200f3
:10437400840078004109dd004f04de000804710068
:1043840028179800cf89de00331798002e1290006a
:10439400be12900024079800350798002e00900064
:1043a400be009000e00f5000e08f580002003a0079
:1043b4006000b8008c00370060808000718080004d
:1043c40060001000e08018000001be004e00900064
:1043d400de009000440bdd00cc02de008502730099
:1043e400450f98004c8cde00580f98004e08900042
:1043f400de089000000051008180590052c3200063
:104404008289b900e002b900840178000301410007
:1044140053c320000300b80001014100820078006a
:104424000200200003352c00021f400003974800bf
:104434001e00be00e00f5000e08f58000a00350057
:104444001e00be0000024000818248002e00900041
:10445400be0090000001be000400be0051f207003f
:10446400008fbe00080037002e009000be009000b0
:104474000001be001e00be004af20700000040001a
:1044840081804800008fbe00d08980006101b9009e
:104494001e00be00c30ade004d0bdd004302de0039
:1044a400040273001e00be004d0cdd004300de005c
:1044b40000007400c308de0080abb900848cb9002e
:1044c40088037800070343000020b8000103430079
:1044d40086007800430add004d00de000000720013
:1044e400cd08de00809ab900828bb900860278007c
:1044f400050242000010b800010242008400780066
:104504004409dd004c04de000804710048179800db
:10451400cc89de00531798004e129000de129000f2
:1045240024079800350798001e00be00ce0add005f
:104534004200de0000807200c208de000001be00fe
:10454400c0898000cf80de00809ab900828bb900d8
:1045540086027800050242000010b8000102420001
:10456400840078004309dd004d04de000804710076
:1045740068179800cd89de00731798006e129000ba
:10458400fe12900044079800550798002e019000f1
:10459400be0190004e009000de0090000201400039
:1045a40083814800b0898000cf80de000200400093
:1045b400838048004c0bdd00c402de0085027300da
:1045c400650f9800448cde00780f98001e00be0032
:1045d4006e099000fe0990000200400083804800ac
:1045e400008fbe001e00be004f06be004f05be0079
:1045f4004f04be000080fa00000006002400fa0008
:10460400889fbe008a9fbe008c9fbe00828080006f
:104614009380800000402d00e1ff2f00001f410027
:104624000197490040808000518080004e09dd00e0
:10463400c201de00830171004e01dd00108a80009a
:10464400cf80de00c400dd00000020000003510024
:1046540081835900208a80006101b9001e0078001e
:104664008382b9001e0090008280b90000024200db
:104674001e0078000200b8000102420084007800a5
:104684000001530081815b00000024000100200030
:104694000200400083804800c109dd004f01de00b4
:1046a40002817100420798004f8ade005407980087
:1046b40060142100104078000001fb00cf91de005f
:1046c4001e0078008382b9001e0090008280b90029
:1046d400000242001e0078000200b80001024200fd
:1046e40084007800c60add004a04de0008847200f3
:1046f400ca8cde0000142100104078000081fb0009
:104704008001eb001e0078008382b9001e00900037
:104714008280b900000242001e0078000200b80046
:104724000102420084007800c509dd004b01de006f
:1047340002817100620798004b8ade0074079800ba
:1047440000002800010020006e019000fe0190008e
:10475400020040008380480080cab90084017800c8
:104764008889b900828141000040b80081814100fc
:10477400830078004609dd00ca02de00850271006c
:10478400050f9800ca89de00130f9800000020006e
:10479400010220000e0a90009e0a900004014000cd
:1047a40085814800f0898000cf80de00809ab900be
:1047b40084027800828ab900848242000011b80021
:1047c400838242008501780000002200010020005d
:1047d40002004000838048004209dd00ce02de0072
:1047e40085027100250f9800ce89de00330f9800f2
:1047f4005e029000ae0a900085a1b900be08900048
:10480400ce0190008388b900000141004e0290005f
:10481400ae0a90000520b800010141008200780032
:10482400008fbe00008fbe001e00be00c109dd0067
:104834004f01de0002817100420f98004f8ade00b2
:10484400540f98001e00be00c10add004f06de00b2
:104854000c867200cf8ede00de0890008c89b900d1
:10486400ce09900083e8b900000141004e0a90008f
:104874000c20b8000101410082007800c90add0063
:104884004705de000a857200c78dde00c0132100d3
:10489400104078000080fb008000eb0080d9b90054
:1048a4008a8ab90084017800030141000050b800ed
:1048b40001014100820078004c09dd00c402de00e1
:1048c40085027100650f9800c489de00730f98009b
:1048d4006e0a9000fe0a90001e1f12001e971a0016
:1048e4001e00be00e00f5000e08f580001003d00a4
:1048f4006000b800008fbe001e00be000200200051
:1049040003902100820f5000838f5800020034006e
:104914000000200001902100008fbe001e00be0098
:104924004409dd00cc02de00850271000517980001
:10493400cc89de00131798000e1290009e1290008e
:1049440024079800350798002e009000be009000c0
:104954004f06be004f05be004f04be000080fa00a3
:10496400000006000200fa00004f7800114798008a
:104974001e4190009e40780060c7b3000c030700fe
:104984000080fa00000006000400fa00000f78001e
:10499400214798002e4090000080fb000001780021
:1049a4009e00780060c7b3001b0307000080fa0074
:1049b400000006000200fa00004f78009e407800d4
:1049c40060c7b300350307000080fa00000006004a
:1049d4000600fa00004f780011079800424798003b
:1049e4004e4090000080fb00800178001e01900082
:1049f4009e40780060c7b300aa0307000080fa0055
:104a0400000006000400fa00000f78001107980067
:104a14001e0190009e0078000000eb00ad0107002d
:104a24000080fa00000006000400fa00000f78007d
:104a3400110798001e0190009e00780010002000cd
:104a4400a40107000080fa00000006000400fa0038
:104a5400000f7800110798001e0190009e00780056
:104a6400200020009b0107000080fa0000000600df
:104a74000400fa00000f7800110798001e0190004e
:104a84009e00780030002000920107000080fa00a8
:104a9400000006000400fa00000f780011079800d7
:104aa4001e0190009e00780040002000890107004c
:104ab4000080fa00000006000400fa002047980075
:104ac40010002000000f7800f08780006200600072
:104ad4000000e00032003a00f00f2100ae409000e8
:104ae40001487800f08780000000a100f08788006a
:104af400f08780000010a000f0878800f087800015
:104b04000030a100f0878800e00020004088880081
:104b1400401f200030888800f08780000020a0001b
:104b2400f087880080852200608888000000eb0000
:104b3400c088880080852200708888000000eb000f
:104b4400d088880080852200808888000000eb00df
:104b5400e088880080852200908888000000eb00af
:104b6400f088880020862200a08888000000eb00de
:104b740000898800bc010700990107000085220014
:104b84006e020700808222007202070080822200e7
:104b940076020700790107000000eb00000f78009f
:104ba4001e0078000080fa00000006000200fa00ef
:104bb400004f7800f00f21001e4878000080fa00b2
:104bc400000006000200fa0010002000000f780028
:104bd400f0878000610060000000e0000a003a00f5
:104be400f08780000010a100f0878800f00f2100fa
:104bf40080c0eb00014878007901070073010700c9
:104c040051888000010f78001e0078000080fa00af
:104c1400000006000200fa00004f78006b01070054
:104c24001e80fb0030888800540107000080fa00d1
:104c3400000006000400fa00000f78001107980035
:104c4400f0878000640060000000e000070032008c
:104c54001e007800008888009e009000118888005b
:104c6400f08780000020a100f08788000080fa000f
:104c7400000006000400fa002047980010002000fd
:104c8400000f7800f0878000610060000000e00001
:104c940013003a00f08780000000a000f08788002d
:104ca4000000eb00000f78002e4090000004e000ac
:104cb4000300320010002000408888000200370002
:104cc4002000200040888800890107003001070087
:104cd4000004a2000004e000010032000d000700ff
:104ce4001e0078000080fa00000006000000fa00b0
:104cf40010c0b300dfff07000080fa0000000600c8
:104d04000000fa000040eb00daff07000080fa0020
:104d1400000006000000fa00030037000000eb006a
:104d240039010700c9000700f087800061006000b6
:104d34000000e000f9ff3a000080fa0000000600dd
:104d44000000fa0067010700f08780000000a1005e
:104d5400f08788000000eb0050888800e000200005
:104d64000080fa00000006000000fa00f0878000ce
:104d74000000a100f08788000000eb005088880044
:104d8400e00020000080fa00000006000000fa00a5
:104d94005b010700100020000080fa0000000600fc
:104da4000000fa0056010700200020000080fa00ed
:104db400000006000000fa00510107001000200066
:104dc4000080fa00000006000000fa00500107000d
:104dd4000000eb000080fa00000006000000fa006a
:104de400f08780000030a000f0878800f00f2100d9
:104df400104078000080fb00000040000040780074
:104e04000004a0005b010700500020000080fa00ad
:104e1400000006000000fa00f08780000030a000c7
:104e2400f0878800f00f2100104078000040400017
:104e340050010700300020000080fa000000060046
:104e44000000fa00f08780000030a100f08788009d
:104e54003f010700400020000080fa000000060027
:104e64000000fa0049010700500020000080fa0009
:104e7400000006000000fa0049010700a00020001d
:104e84000080fa00000006000000fa004401070058
:104e9400900020000080fa00000006000000fa00e4
:104ea400f08780000030a100f087880020002000f7
:104eb4005088880081888000e0888000010001001b
:104ec4000080e900e10f500002003e00b9ff070036
:104ed40001003700bcff07000080fa000000060054
:104ee4000000fa000e0107000004e0000e0032008a
:104ef40091888000f088800001000100e20f5000da
:104f040003003200e30f50000300320004003700b6
:104f14009eff070016003700a1ff070014003700aa
:104f2400a9ff070012003700f08780000030a100bd
:104f3400f087880000888000904078000000e80036
:104f440000888800014078000a010700108880006a
:104f54000000e90010888800108880000000e0004c
:104f64000200320030002000010037006000200001
:104f74000080fa00000006000000fa00881f780094
:104f840008888000f6000700004c78000800e8005c
:104f940000888800108880000000e90010888800dc
:104fa400108880000000e00003003200f7000700d2
:104fb400500020000c003700f08780000020a00083
:104fc400f087880061888000c088800001000100ab
:104fd4000080e900e10f500002003e00aaff070034
:104fe40001003700a3ff07004f0478000080fa0097
:104ff400000006000000fa00f08780000020a000f6
:10500400f087880061888000c0888000010001006a
:10501400e20f50000a003900e30f5000030036008d
:10502400e40f5000030032000500370061ff070061
:10503400040037006f000700300020000100370033
:1050440061ff07000080fa00000006000000fa007b
:1050540063000700f0878000680060000000e00043
:1050640005003200ae0007000004e0000200320038
:10507400f0002000408888004088800080004000c4
:10508400801421000080400010007800000001001e
:10509400408888000080fa00000006000000fa0042
:1050a400120107000080fa00000006000200fa0066
:1050b400000f7800100020000080fa0000000600b5
:1050c4000200fa00000f7800500020000080fa006f
:1050d400000006000600fa00000f7800110798008f
:1050e400220798001e0090000000e0000f0032002c
:1050f4009e0078006780400080004000e00f21009f
:10510400008040009e009000010878009e00780016
:105114006d80400080004000e00f210000804000ce
:10512400ae009000010878000e0037009e00780061
:105134006780400080004000e00f210000804000b4
:1051440081852200010878009e0078006d8040006f
:1051540080004000e00f2100008040008000eb0050
:10516400010878000080fa00000006000000fa0040
:1051740001e2a9000080fa00000006000000fa0025
:105184002228a8002208a8000080fa0000000600d7
:105194000000fa0010418000620060000000e0009e
:1051a40004003a0010418000610060000000e0004b
:1051b4000200320010002000010037000000eb0064
:1051c400004078000080fa00000006000000fa00a9
:1051d4002228a9002208a9000080fa000000060085
:1051e4000000fa000228a9000208a9000080fa00c1
:1051f400000006000000fa000228a8000208a80027
:105204000080fa00000006000200fa00000f780097
:1052140010408000620060000000e00010003a00ce
:1052240010408000610060000000e0000c003a00c3
:1052340010408000620060000000e00008003a00b6
:1052440010408000610060000000e00004003a00ab
:1052540000192000010020007e040700f4ff37003d
:105264000080fa00000006000000fa00011080002f
:1052740000002800008060000000e00007003a0001
:105284000422ef0000002800001088002001200004
:105294008010880010c0b300010037000040eb000c
:1052a4000080fa00000006000000fa0001108000ef
:1052b40000002800008060000000e00006003a00c2
:1052c4000222a8000202a80000c2a80001e2a8006d
:1052d40010c0b300010037000040eb000080fa006a
:1052e400000006000000fa000080fa00000006003a
:1052f4000000fa000002a8000080fa000000060086
:105304000000fa000022a8000080fa000000060055
:105314000000fa000042a8000080fa000000060025
:105324000000fa0020108000ff800a000000000046
:105334000080fb0000f0a7000000ea000000ea0083
:105344004f00de00004078000080fa0000000600f4
:105354000000fa000062a8000080fa0000000600c5
:105364000000fa00c0108000004078000080fa00bd
:10537400000006000200fa00004f78001e80fb00c7
:10538400a01088000080fa00000006000000fa0067
:1053940000a2a9000082a8000080fa000000060014
:1053a4000000fa0000a2a8000082a8000080fa0011
:1053b400000006000000fa000182a8000080fa0044
:1053c400000006000000fa00201080006200600067
:1053d4000000e00004003a0020108000610060003a
:1053e4000000e0000200320010002000010037003d
:1053f4000000eb00004078000080fa000000060086
:105404000000fa002010800033800a000000000031
:105414000080fb0000f0a7000000ea000000ea00a2
:105424004f00de00004078000080fa000000060013
:105434000000fa00211080000002200000806000bb
:1054440000f0a7000000ea000000e9004f00de00c1
:10545400004078000080fa00000006000000fa0016
:105464002010800044800a00000000000080fb003f
:1054740000f0a7000000ea000000ea004f00de0090
:10548400004078000080fa00000006000000fa00e6
